:020000040800F2
:1000000090070020890100087B1800082D160008C1
:10001000791800088F020008C31B000800000000C8
:100020000000000000000000000000007F18000831
:1000300091020008000000007D18000881180008E7
:10004000A3010008A3010008A3010008A301000800
:10005000A3010008A3010008A3010008A3010008F0
:10006000A3010008A301000895020008A3010008ED
:10007000A3010008A3010008A3010008A3010008D0
:10008000A3010008A3010008A3010008A3010008C0
:10009000A3010008A3010008A3010008E902000869
:1000A000A3010008A3010008A3010008E518000847
:1000B000F1180008A3010008A3010008A30100082B
:1000C000A3010008A3010008A3010008A301000880
:1000D000A3010008A3010008A3010008A301000870
:1000E000A3010008A3010008A301000800F002F822
:1000F00000F03AF80AA090E8000C82448344AAF188
:100100000107DA4501D100F02FF8AFF2090EBAE885
:100110000F0013F0010F18BFFB1A43F0010318473B
:100120001C2500003C250000103A24BF78C878C187
:10013000FAD8520724BF30C830C144BF04680C60ED
:10014000704700000023002400250026103A28BF35
:1001500078C1FBD8520728BF30C148BF0B60704739
:100160001FB51FBD10B510BD00F058F81146FFF7C0
:10017000F7FF01F043FD00F076F803B4FFF7F2FF5C
:1001800003BC00F07DF8000009488047094800479B
:10019000FEE7FEE7FEE7FEE7FEE7FEE7FEE7FEE737
:1001A000FEE7FEE704480549054A064B7047000094
:1001B000E3180008ED0000089001002090070020DF
:1001C00090030020900300204FF0000200B513467A
:1001D00094469646203922BFA0E80C50A0E80C5067
:1001E000B1F12001BFF4F7AF090728BFA0E80C5018
:1001F00048BF0CC05DF804EB890028BF40F8042B11
:1002000008BF704748BF20F8022B11F0804F18BF7D
:1002100000F8012B7047704770477047754600F033
:100220002BF8AE4605006946534620F00700854688
:1002300018B020B5FFF7B6FFBDE820404FF000062C
:100240004FF000074FF000084FF0000B21F00701BE
:10025000AC46ACE8C009ACE8C009ACE8C009ACE801
:10026000C0098D46704710B50446AFF300802046A4
:10027000BDE81040FFF781BF004870473001002003
:1002800001491820ABBEFEE7260002007047FEE7DA
:10029000704700002DE9F047DFF84490002210215C
:1002A000484600F050F90F4D00242E1D371D07F170
:1002B00004084FF01E0A03E0C7F800A0C8F8004089
:1002C0001021484600F03AF92C6034600028F3D041
:1002D0003C60C8F80040BDE8F047102000F032B89C
:1002E000000C0140340400402DE9F047DFF848904D
:1002F00000222021484600F026F9104D00242E1D32
:10030000371D07F104084FF01E0A05E0C5F800A0EC
:1003100034603C60C8F800402021484600F00EF9E7
:100320000028F3D02C6034603C60C8F80040BDE881
:10033000F047202000F006B8000C014034040040D3
:1003400070470000044910B50A68024202D00860F4
:10035000FFF7F6FF10BD0000140401402DE9F84F2F
:10036000DFF8B891002409F1040A0AF1040B2346CE
:100370000F270BF1040EC9E00125A5402A40AA422F
:100380007DD1674ED1F804C0ACEB0608B44532D03D
:1003900014DCBCF1030F3AD009DCBCF1000F2AD009
:1003A000BCF1010F1CD0BCF1020F31D11DE0BCF13A
:1003B000110F17D0BCF1120F2AD119E0B8F5881F20
:1003C00019D006DCB8F5803F15D0B8F5801F1FD1D5
:1003D00011E0B8F5001F0ED0B8F5041F18D10AE0DF
:1003E000CB6815E0CB681B1D12E0CB6808330FE02B
:1003F000CB680C330CE08B682BB1012B4FF008035A
:1004000003D0456104E0042302E0056100E000231D
:10041000FF2A01D8064601E000F104064FEA8405F0
:1004200001D9A5F12005D6F8008007FA05FC28EAD5
:100430000C0803FA05F548EA0508C6F800804D687F
:10044000ED0062D5374DAE6946F00106AE61AD698B
:1004500024F0030605F001050095334D06EB050C6D
:10046000DCF80850A607360F07FA06F825EA080553
:10047000DFF8B880404503D14FF0000817E044E0B2
:10048000DFF8AC80404502D14FF001080FE0DFF803
:10049000A480404502D14FF0020808E0DFF89880C0
:1004A000404502D14FF0030801E04FF0040808FA7C
:1004B00006F848EA0508CCF808804D68D9F80060CD
:1004C000ED034D4601D5164300E096432E604D687E
:1004D000DAF80060AD03554601D5164300E09643B7
:1004E0002E604D68DBF80060ED025D4601D51643D5
:1004F00000E096432E604D68DEF80060AD02754660
:1005000001D5164300E096432E60641C0D682A4610
:10051000E5407FF431AFBDE8F88F000000040140F2
:1005200000001110001002400000014000080140CE
:10053000000C014000100140001401408068084098
:1005400000D0012070470AB1016170470904FBE740
:100550000148806870470000480000200248816818
:10056000027811448160704748000020074810B5A8
:10057000016841F010010160032000F075F80F20C0
:1005800000F006F800F024F8002010BD0020024022
:1005900070B50D4D04464FF47A712878B1FBF0F038
:1005A0000A490968B1FBF0F000F0CCFA48B9102C08
:1005B00007D200222146501E00F036F800206C6061
:1005C00070BD012070BD00004800002054000020D4
:1005D0000C4808B5816941F001018161816901F030
:1005E00001010091C16941F08051C161C06900F011
:1005F000805000900448416821F0E06141F00071B2
:10060000416008BD0010024000000140002809DBE5
:1006100000F01F02012191404009800000F1E0201C
:10062000C0F8001170470000F0B40E4B1B680C4678
:10063000C3F30223C3F10705042D00D90425191DB6
:10064000072901D2002300E0DB1E012606FA05F18E
:10065000491E214099409E40761E16403143F0BC11
:1006600001F0B0BA0CED00E0064900F0070208689E
:100670004FF6FF03184040EA0220034A1043086087
:10068000704700000CED00E00000FA052DE9F0478E
:100690000F46050061D0434E306800F00700B842B5
:1006A00009D2306820F0070038433060306800F02D
:1006B0000700B84251D128683B4C810712D540074A
:1006C00003D5606840F4E06060602878000703D5D7
:1006D000606840F4605060606068A96820F0F000D5
:1006E000084360602878C00728D06868012810D0C7
:1006F0002168022810D0890700292EDA616821F0CC
:10070000030101436160FFF723FF804641F288390E
:100710000DE021688903EFE78901EDE7FFF718FF96
:10072000A0EB0801494502D90320BDE8F0876068C5
:10073000696800F00C00B0EB810FEFD1306800F079
:100740000700B8420BD9306820F00700384330600A
:10075000306800F00700B84201D00120E5E72878B2
:10076000400705D56068E96820F4E06008436060F0
:100770002878000706D56068296920F4605040EAAF
:10078000C100606000F018F86168084AC1F3031105
:10079000515CC8400649086006480068FFF7F8FE4B
:1007A0000020C2E700200240001002402A26000874
:1007B000540000204C00002012A185B00FC98DE824
:1007C0000F0014A0144A006804905168134801F007
:1007D0000C03042B10D0082B0ED1C1F38343C903A3
:1007E0001DF803000AD5516804AAC1F34041515CC9
:1007F0000A4A5043B0FBF1F005B07047084948433E
:10080000FAE7000002030405060708090A0B0C0DAD
:100810000E0F1010010200000010024000127A00BA
:1008200000093D002DE9F84F040070D02078C04D3C
:10083000C00749D06868C0F38100012807D0686804
:10084000C0F38100022809D16868C00306D5286872
:10085000800339D560680028E7D035E06068B0F5DE
:10086000803F0BD010B1B0F5A02F11D0286820F434
:1008700080302860286820F4802002E0286840F456
:1008800080302860606890B1FFF762FE06460AE09B
:10089000286840F480202860F0E700BFFFF758FE8A
:1008A000801B642873D828688003F7D50CE0FFF715
:1008B0004FFE064605E000BFFFF74AFE801B642896
:1008C000F0D828688003F7D420789A4E80074FF03C
:1008D00001094FF0000839D5686810F00C0F07D0F7
:1008E0006868C0F38100022809D16868C00306D493
:1008F0002868800714D52069012808D110E02069F4
:10090000B0B1C6F80090FFF723FE074605E00AE104
:10091000FFF71EFEC01B0228C4D828688007F7D541
:100920002868616920F0F80040EAC10028600DE005
:10093000C6F80080FFF70CFE074604E0FFF708FE4C
:10094000C01B022823D828688007F7D42078000726
:100950002CD57948A169D9B1C0F80090FFF7F8FD0E
:10096000074604E0FFF7F4FDC01B02280FD8686AB1
:100970008007F7D571484FF4FA510068B0FBF1F0E9
:10098000009000BF0098411E0091FAD20EE080E076
:10099000C0F80080FFF7DCFD074604E0FFF7D8FD54
:1009A000C01B022875D8686A8007F7D420784007F2
:1009B00060D5E8690027C00008D4E86940F080509D
:1009C000E861E869012700F0805000905C48016808
:1009D000C90513D40168834641F480710160FFF7B3
:1009E000B7FD824606E000BFFFF7B2FDA0EB0A00AC
:1009F00064284ED8DBF80000C005F5D5E068012872
:100A00000AD008B1052813D0286A20F00100286216
:100A1000286A20F0040002E0286A40F00100286201
:100A2000E06841F2883B98B1FFF792FD82460BE007
:100A3000286A40F004002862EEE700BFFFF788FD57
:100A4000A0EB0A0159455AD8286A8007F6D50CE070
:100A5000FFF77EFD824605E0FFF77AFDA0EB0A0175
:100A600059454CD8286A8007F6D41FB1E86920F0B0
:100A70008050E861E06988B36968C1F381010229A7
:100A800044D00228C6F8608004D0FFF761FD044618
:100A900038E034E0FFF75CFD074604E0FFF758FD5F
:100AA000C01B02282BD828688001F7D4206AB0F533
:100AB000803F05D16868A16820F400300843686071
:100AC000D4E908010843696821F474110843686097
:100AD000C6F86090FFF73CFD044606E025E000BF45
:100AE000FFF736FD001B022809D828688001F7D5DA
:100AF0001BE000BFFFF72CFD001B022802D90320DA
:100B0000BDE8F88F28688001F4D40EE00128F7D002
:100B10006868226A00F48031914204D1616A00F46D
:100B20007010884201D00120EAE70020E8E70000C9
:100B30000010024000004242800442425400002063
:100B40000070004010B5401EB0F1807F01D301203D
:100B500010BD4FF0E02460610F21601701F032F802
:100B60000020A06107202061002010BD7047704761
:100B700070B590F83C20012A26D0012480F83C4032
:100B8000022280F83D2003685A689D6822F07006B2
:100B90000A6832435A600D4B02689A4208D0B2F19B
:100BA000804F05D00A4B9A4202D00A4B9A4204D198
:100BB000496825F080031943916080F83D40002189
:100BC00080F83C10084670BD022070BD002C01402A
:100BD000000400400008004010B5040003D094F861
:100BE0003D0010B107E0012010BD002084F83C005A
:100BF000204600F01FF8022084F83D00211D2068E7
:100C000000F07CFE012084F8460084F83E0084F861
:100C10003F0084F8400084F8410084F8420084F8E2
:100C2000430084F8440084F8450084F83D00002027
:100C300010BD000008B501681048B1F1804F0BD01D
:100C40000F4A914207D1C16941F00201C161C069F7
:100C500000F00200009008BDC16941F00101C161CE
:100C6000C069002200F00100009002211C20FFF763
:100C7000DBFCBDE808401C20FFF7C8BC00100240A8
:100C80000004004090F83D10012901D00120704778
:100C9000022180F83D100168CA6842F00102CA6072
:100CA00000680B49884208D0B0F1804F05D009494F
:100CB000884202D00849884204D1816801F00701C6
:100CC000062903D0016841F001010160002070474E
:100CD000002C0140000400400008004070B50446AC
:100CE00090F83C00012817D0012584F83C500220E0
:100CF00084F83D002068826822F0770222F47F4267
:100D000082600868502830D00DDC20284DD005DCEA
:100D100098B310283BD148E0022070BD302844D061
:100D2000402834D139E0602828D0702806D0B0F5AA
:100D3000805F2CD0B0F5005F29D10AE0CB68D1E903
:100D40000121206800F01DFE2068816841F07701D4
:100D500009E0CB68D1E90121206800F012FE20688B
:100D6000816841F48041816011E0CA684968206867
:100D700000F0BCFE5021206807E016E0CA68496810
:100D8000206800F0F1FE6021206800F004FE84F885
:100D90003D50002084F83C0070BDCA684968206856
:100DA00000F0A4FE40212068EFE7226801461046CB
:100DB000EBE7000070B50546007F012822D1254CE5
:100DC000207870B101281DD10021284600F0FCFBDD
:100DD000A060296800264E626168884213D9401AD3
:100DE00019E00021284600F0EFFB60600120207030
:100DF0002868016A21F00A0101622868016A41F04D
:100E00000201016270BD814201D8E06804E04FF642
:100E1000FF72511A0844E06000F083FF0E4A0F4B46
:100E200000F092FF4FF0FF3201F093FB00F04CFF17
:100E3000607026702868016A21F00A010162286842
:100E4000016A016206480068C16821F00201C160C0
:100E500070BD0000000000209CC420B07268A13F5B
:100E6000580000202DE9F041054690F83C000C4662
:100E7000012836D0012085F83C008AB3042A42D0EC
:100E80002868082A51D0D4E90023E168066A26F4CC
:100E900080560662C669076A26F4407646EA03234E
:100EA0004FF6FF7606EA013123F4704319434FF4FD
:100EB000005627F4005306EA02321A43C161026267
:100EC0002868C16921F44061C1612868C169A268CC
:100ED00041EA0221C161002085F83C00BDE8F081B3
:100EE00001E00220FAE7D4E90012E368286800F084
:100EF0000FFE2868816921F00C01816128688169F1
:100F0000A26811430FE0D4E90012E368286800F0FA
:100F10003DFE2868816921F440618161286881690A
:100F2000A26841EA02218161D5E7D4E90027267B46
:100F3000016A21F480710162C169036A21F0030131
:100F4000394321F0F00731074FF4007647EA116189
:100F500023F4007306EA02221A43C1610262286880
:100F6000C16921F00C01C1612868C169A2681143FF
:100F7000B0E710B5040003D094F83D0010B107E0CD
:100F8000012010BD002084F83C00204600F01EF82F
:100F9000022084F83D00211D206800F0AFFC0120F4
:100FA00084F8460084F83E0084F83F0084F840004E
:100FB00084F8410084F8420084F8430084F8440037
:100FC00084F8450084F83D00002010BD00B585B0D0
:100FD0000021009101910291039100681249884219
:100FE0001FD11248816941F400618161816901F476
:100FF00000610491816941F0040181618069694661
:1010000000F0040004904FF4807000900848FFF74F
:10101000A5F9002203211B20FFF706FB1B20FFF789
:10102000F5FA05B000BD0000002C014000100240A0
:101030000008014010B5044651B104290DD008291B
:1010400010D094F8410094F84520012811D10EE009
:1010500094F83E0094F84220F7E794F83F0094F8A3
:101060004320F2E794F8400094F84420EDE7012A89
:1010700001D0012010BD022051B1042911D008294E
:1010800018D084F8410084F845000C291BD136E0C3
:1010900084F83E0084F842002068C26842F00202F0
:1010A00010E084F83F0084F843002068C26842F0F2
:1010B000040207E084F8400084F844002068C26815
:1010C00042F00802C2600122206800F04DFC0E4987
:1010D0002068884208D0B0F1804F05D00B49884283
:1010E00002D00B49884204D1816801F0070106292A
:1010F00003D0016841F001010160002010BD2068AB
:10110000C26842F01002DDE7002C014000040040FC
:101110000008004070B50446006801694FF0000502
:10112000C943890715D4C168C943890711D4E91E89
:10113000016101202077206880698007204602D065
:10114000FFF738FE04E000F0D1F8204600F060F927
:10115000257720680169C943490717D4C168C94385
:10116000490713D46FF00401016102202077206841
:10117000806910F4407F204602D0FFF71BFE04E098
:1011800000F0B4F8204600F043F9257720680169A3
:10119000C943090716D4C168C943090712D46FF0BF
:1011A00008010161042020772068C069800720467B
:1011B00002D0FFF7FFFD04E000F098F8204600F0B1
:1011C00027F9257720680169C943C90617D4C16882
:1011D000C943C90613D46FF01001016108202077BC
:1011E0002068C06910F4407F204602D0FFF7E2FD7E
:1011F00004E000F07BF8204600F00AF9257720682B
:101200000169C943C90708D1C168C943C90704D1E5
:10121000891E0161204600F04BF920680169C9432D
:10122000090609D4C168C943090605D46FF08001D5
:1012300001612046FFF79AFC20680169C94349060D
:1012400009D4C168C943490605D46FF04001016162
:10125000204600F0CEF920680169C94389060BD405
:10126000C168C943890607D46FF020010161204697
:10127000BDE87040FFF77BBC70BD000010B586B0C4
:101280000021009101910291039100681349884265
:1012900021D11348816941F004018161816901F024
:1012A00004010491816941F008018161806902248F
:1012B00000F008000490C020CDE900046946094808
:1012C0000394FFF74BF80320CDE900046946064874
:1012D0000394FFF743F806B010BD0000000400407F
:1012E0000010024000080140000C0140704770B53A
:1012F000044690F83C000D4601280AD0012084F8ED
:101300003C0042B1042A18D0082A2AD00C2A4DD118
:1013100039E0022070BD206800F046FB206881693A
:1013200041F0080181612068816921F00401816137
:10133000206881692A69114311E0206800F05CFB94
:101340002068816941F4006181612068816921F42C
:1013500080618161206881692A6941EA0221816195
:1013600024E0206800F074FB2068C16941F00801A6
:10137000C1612068C16921F00401C1612068C169AF
:101380002A69114311E0206800F08EFB2068C169D2
:1013900041F40061C1612068C16921F48061C161CB
:1013A0002068C1692A6941EA0221C161002084F8EC
:1013B0003C0070BD10B5040003D094F83D0010B19E
:1013C00007E0012010BD002084F83C00204600F01A
:1013D0001EF8022084F83D00211D206800F08EFADE
:1013E000012084F8460084F83E0084F83F0084F829
:1013F000400084F8410084F8420084F8430084F8F7
:10140000440084F8450084F83D00002010BD70477A
:101410007047000010B50446022249B104290ED0DD
:10142000082913D094F84100012816D0012010BDDE
:1014300094F83E000128F9D184F83E200FE094F89A
:101440003F000128F2D184F83F2008E094F84000E2
:101450000128EBD184F8402001E084F841200122EA
:10146000206800F081FA0F492068884203D1426C5D
:1014700042F4004242642068884208D0B0F1804FB4
:1014800005D00949884202D00849884204D18168C0
:1014900001F00701062903D0016841F00101016054
:1014A000002010BD002C0140000400400008004056
:1014B0002DE9F84F404C607800F0BAFE216C00F046
:1014C00097FFE061216A05468B4600F09BFF216B88
:1014D00000F0C2FE814620615946284600F05EFDBC
:1014E00000F030FD8046E06B0F46009000F02AFDD2
:1014F00006468A46606B00F025FD4FF0FF3201F092
:1015000028F83246534600F01FFC42463B4600F0A6
:101510001BFC00F09FFB074660610121584601F06B
:1015200046F8294600F064FF616A00F037FD064680
:101530000099A06B00F09AFD314600F08DFE064642
:10154000A0614946E06A00F029FD394600F026FD19
:10155000314600F023FDA062E0621849C4E9085B4F
:10156000884202DC1649884200D9A162A06A064678
:1015700000F0E8FC21F0004100F06CFB6064114CCD
:10158000002516F1FF4F276809D300F031FE78637C
:1015900021688D632168C8632068056408E07D6365
:1015A00000F026FE216888632168CD632168086405
:1015B000BDE8F84F00F01EB8000000200000C8424F
:1015C0000000C8C2E80000200246002041B1042902
:1015D00009D008290AD00C2901D11068006C704785
:1015E0001068406B70471068806B70471068C06B64
:1015F0007047704770B501220A4D540221462846B3
:10160000FEF7A1FF0A2000F0EDFA0022214628464D
:10161000FEF799FF04480068C16841F00201C1600B
:1016200070BD00000008014058000020FEE70000E7
:1016300070B586B000242548009401940294039468
:10164000816941F020018161816901F020010491EB
:10165000816941F004018161816901F00401049113
:10166000816941F0080181618069194E00F008002C
:1016700040F206250490002229463046FEF763FF1B
:101680000220CDE9024000950125694601953046CA
:10169000FEF764FE302000900E48CDE90105694652
:1016A0000D48FEF75BFE002201210A20FEF7BCFF79
:1016B0000A20FEF7ABFF002201211720FEF7B4FF3E
:1016C0001720FEF7A3FF06B070BD00000010024017
:1016D0000008014000002110000C014010B586B048
:1016E0000024194805940494009401940294154927
:1016F000039401604721C0E901144FF6FE71C0E96F
:10170000031444618461FFF734FC08B172B6FEE74C
:10171000049404A90C480594FFF72AFA08B172B69C
:10172000FEE70120CDE90040029400226946064808
:101730000394FFF797FB002801D072B6FEE706B0CE
:1017400010BD0000002C01405800002010B586B0EC
:1017500000241648009401940294039404944FF0DA
:101760008041059401604721C0E9011442F20F71E4
:10177000C0E903148461FFF72FFA08B172B6FEE7DF
:101780004FF48050009069460848FFF7A7FA08B167
:1017900072B6FEE7049404A904480594FFF7E8F93B
:1017A000002801D072B6FEE706B010BDA0000020F0
:1017B00010B58EB000240794089409940A940B94F1
:1017C0001C2168460C94FEF7FFFC2A48284901605A
:1017D00041F61F41C0E901146321C0E9031484618B
:1017E000FFF7FAF908B172B6FEE74FF480500790A0
:1017F00007A92048FFF772FA08B172B6FEE71D4844
:10180000FFF7D8FD08B172B6FEE70B940BA9194893
:101810000C94FFF7ADF908B172B6FEE76020CDE990
:10182000000402940022694612480494FFF75FFD09
:1018300008B172B6FEE7042269460E48FFF757FD6D
:1018400008B172B6FEE7082269460A48FFF74FFD65
:1018500008B172B6FEE70C2269460648FFF747FD5D
:1018600008B172B6FEE70348FFF708FD0EB010BDE1
:1018700000040040E8000020FEE7FEE770477047E4
:10188000FEF76CBE30B58FB028216846FEF79CFC91
:1018900014210AA8FEF798FC01210804CDE90010E4
:1018A0000024029402250491CDE907504FF4E01082
:1018B00009906846FEF7B6FF08B172B6FEE70F2042
:1018C000CDE90A054FF48060CDE90C4002210AA859
:1018D0000E94FEF7DBFE002801D072B6FEE70FB0D3
:1018E00030BD70470148FFF715BC000058000020CC
:1018F0000148FFF70FBC0000A0000020F0B502680F
:10190000164B174C174D4FF08047984205D0B84200
:1019100003D0A04201D0A84203D122F070064A6849
:101920003243984205D0B84203D0A04201D0A84229
:1019300003D122F44074CA6822434C6922F0800229
:10194000224302608A68C2620A688262984201D1B8
:101950000969016301214161F0BD0000002C0140D3
:10196000000400400008004010B501F01F030121F1
:10197000046A99408C430462016A9A4011430162EF
:1019800010BD10B5846842EA032224F47F440A4360
:101990002243826010BD826822F070020A4342F046
:1019A000070181607047000030B5026A22F0010231
:1019B0000262026A4368846924F073050C682C4350
:1019C00022F002058A682A430A4DA8420BD122F070
:1019D0000805CA6823F440732A434D6922F00402C3
:1019E0001D438B692B4343608461496841630262F4
:1019F00030BD0000002C014030B5026A22F0100218
:101A00000262026A436884690D6824F4E64444EA89
:101A100005248D6822F0200242EA05120B4DA842EF
:101A20000ED1CD6822F0800242EA05124D6923F4FE
:101A3000406343EA85038D6922F0400243EA85034F
:101A40004360846149688163026230BD002C0140BB
:101A500030B5026A22F480720262036A4268C46985
:101A600023F4007324F073050C682C438D6843EA5B
:101A700005230C4DA8420ED1CD6823F4006343EA40
:101A800005234D6922F4405242EA05128D6923F480
:101A9000806342EA05124260C4614968C16303621F
:101AA00030BD0000002C014030B5026A22F48052A3
:101AB0000262046A4268C3690D6823F4E64343EA9C
:101AC00005238D6824F4005444EA0534064DA842E9
:101AD00004D14D6922F4804242EA85124260C3611A
:101AE00049680164046230BD002C014010B5036AEE
:101AF000046A24F001040462846924F0F00444EAD6
:101B0000021423F00A020A438461026210BD00003D
:101B100070B5046A24F0010404628469056A0F4EFA
:101B2000B04208D0B0F1804F05D00D4EB04202D087
:101B30000C4EB04203D124F00304144301E044F0FE
:101B400001041A0724F0F00444EA126225F00A03A3
:101B500001F00A0119438261016270BD002C01404D
:101B6000000400400008004010B5036A23F0100391
:101B700003628369046A23F4704343EA023224F067
:101B8000A00343EA01118261016210BD30B5046A0D
:101B900024F0100404628469056A24F4407444EA61
:101BA000022222F470444FF6FF7202EA033222430B
:101BB000A02425F0A00304EA011119438261016207
:101BC00030BDFEE70907090E002804DB00F1E02024
:101BD00080F80014704700F00F0000F1E02080F85A
:101BE000141D7047044900220B685A6209684A6A4A
:101BF0008242FCD37047000058000020FEF7B6FC7C
:101C0000FFF740FEFFF714FDFFF768FDFFF79EFDAD
:101C1000FFF7CEFD00210E48FFF70CFA0C484830C4
:101C2000FFF730F80A4800219030FFF7F3FB08482F
:101C300004219030FFF7EEFB054808219030FFF7B4
:101C4000E9FB03480C219030FFF7E4FBFEE70000BE
:101C50005800002021F00042A2F16052B2F5801F2E
:101C600001F0004328BFD2F17F6C0BD95FEA001C62
:101C700043EAC20242EB507018BF704728BF20F001
:101C800001007047B2F5801FBCBF184670474FEA8D
:101C9000410C1CF5001F02D2084600F0A4BB70B531
:101CA00000F0FCF800000089FFF7F6BF4FF000409D
:101CB000A0F580007047000002494FF0000000F0DE
:101CC00016BC00BF0000F87F4FEA1153A3F58063F4
:101CD000D3F11E03A8BFD3F1200C08DB4FF0004264
:101CE00042EAC12252EA505232FA03F070470942E6
:101CF0000BD4102BC4BF0020704703F5787CBCF1D7
:101D0000FF3F05D04FF0FF3070474FF000007047A5
:101D100070B500F0C3F800BF4992248000207047DE
:101D2000F0E7B0FA80F310FA03F10AD0C3F11D0313
:101D300003F580634FEA41504FEA035202EBD12191
:101D400070474FF000007047DFF848C170B51CEADB
:101D5000111E1EBF1CEA13159EEA0C0F95EA0C0F0C
:101D600000F06F8081EA030423EA4C134EEAD47E2C
:101D700021EA4C1141F4801143F48013AE44A1FBDD
:101D8000024CA0FB0365AEF17F7E361955EB0C05C6
:101D9000A1FB034C4CF10003A0FB021C16EB0C064C
:101DA000654153F10003094218BF46F0010613F4E0
:101DB000007F0BD14FEA03314FEA0530340341EA8B
:101DC000155140EA16506FF003020AE04FEAC321B2
:101DD0004FEAC520F40241EA555140EA56506FF0EF
:101DE000020202EB2E4201EB025585EACE710AD0C7
:101DF0005FEA440C18BF24F0004450F1000041F1A8
:101E0000000120EAD47040F2FE7C624500D270BD31
:101E1000A84214BF4FF080444FF04044002E08BF4A
:101E20000024BEF1806FA8BFA1F1C041BDE87040A1
:101E300080F282804FF0000001F1C04101F00041CA
:101E400070479EEA0C0F0CEA131518BF95EA0C0FA9
:101E500006D04FF0000081EA030E0EF0004170BD85
:101E600000F01CF88900013E00F007B800F009B846
:101E70004FEA430C5FEA5C5C08D081EA030100F0A2
:101E80005BB84FEA410C5FEA5C5CF6D14FF00000B2
:101E9000014970470000FF070000F87F0EF1020EB5
:101EA0002EF0030E5EF8046B364205D4012A43EB94
:101EB000030515F5001F12D8012841EB010C1CF594
:101EC000001F0CD80ED14FEAD17C15F5001F0CEB8A
:101ED0004C0C0CF1020C08BF4CEBD37C04E04FF02F
:101EE000080C01E04FEAD37C0CEB4C0526FA05F612
:101EF00006F00706B6F1040C06D20EEB860CBDE820
:101F000070404CF0010C6047DFE80CF0090B020256
:101F10004FF000414FF00000A1F5002170BD1946BF
:101F20001046012851EB010418BFD4F5001484BFFA
:101F3000002001F0004170BD0808A0F500114FEA33
:101F40003101704743004FEAD30C4FEA3C0C434049
:101F50001FBF40070CF1605113F0FE4F70471CF09B
:101F6000006F03D100200CF0004170470CF00043DB
:101F700043EA507010B540EACC0000F0EEF900BF23
:101F8000000000924FEA0001FFF7D6BF4FF000417A
:101F90004FF00000A1F500217047000090EA010F0A
:101FA00048BF81F0004100F13482421A3CBF801AE0
:101FB00089184FEAD0524FF07F4C1CEA410FA2EB38
:101FC000D15318BF9CEA026F00F03B804FF0004CE9
:101FD0004CEA00204CEA012121FA03FC10EB0C0C26
:101FE0001ED202F1FF325FEA1C2040EBC25038BF24
:101FF00070471CF07F0F4FEA400C18BFBCF17F4FB9
:1020000038BF7047C3F12003994008BF20F001009A
:10201000BCF17F4F38BF7047A0F1C04000F0E3B97A
:102020004FEA3C00000A40EBC25028BF1CF0FF0FF3
:102030004FEA400CE6D018BFBCF17F4F38BF704765
:10204000EAE79CEA026F05D010EA5C0F08BF00F0D7
:102050000040704710B500F080F900BF64FBBE3E41
:10206000014800F044BA00BF0000C07F4FF47F0C6D
:102070001CEAD0121EBF1CEAD11392EA0C0F93EA9D
:102080000C0F00F0858090EA010F48BF42F4807287
:1020900040F4000C41F400002CF07F4120F07F4020
:1020A00000B58142A2EB03020FF2081CACEB504ECC
:1020B000C0F100009EF800E04FEA4E0E00FB0EFC5F
:1020C00038BF49004FEA2C1C02F5FA020CFB0EF354
:1020D0004FEACE1E4FEA112C4FEAC1210EEB635E90
:1020E00042EB22420EFB0CFC4FEA1C5300FB031197
:1020F0004FEA112C4FEA01310EFB0CFC4FEADC4C8D
:1021000000FB0C11C14228BF09184CEB03335DF8EA
:1021100004EB10EB410143EBC250B2F57C0F38BF2A
:10212000704729D512F0F00F1CBF00F1C04000F03D
:1021300000407047008182838485868788898B8CE4
:102140008D8E8F919293959697999A9C9D9FA0A220
:10215000A3A5A7A8AAACAEB0B2B3B5B7B9BCBEC070
:10216000C2C5C7C9CCCED1D4D7D9DCDFE2E6E9EC11
:10217000F0F3F7FAFE0000004FEA400C0CF1807C0F
:10218000BCF17E4F28BF7047B0F1C04000F02BB9C2
:1021900090EA010F0CEAD11348BF42F48072624505
:1021A00038BF634507D213F47F0F16D080EA0100D1
:1021B00000F00040704710B500F0CFF8097EFC3EFB
:1021C00000F005B880EA010000F00040704780EAA6
:1021D000010000F0004000F006B912F47F0F04BFC8
:1021E0000248704780EA010000F0FDB80000C07F9F
:1021F000C10DD1F19E0206DB4FEA002343F00043FC
:1022000023FA02F07047004207D54FEA4001B1F1CE
:10221000FE4F02D24FF00000704710B500F09DF85D
:1022200049922480002070476FEA20007047000028
:10223000B0FA80F310FA03F2C3F19D030AD0D90576
:1022400001EB1220530638BF704700F1010008BFB0
:1022500020F00100704700004FF47F0C1CEAD01200
:102260001EBF1CEAD11392EA0C0F93EA0C0F00F088
:10227000478090EA010F48BF42F480724FF0004C53
:102280004CEA00204CEA012102EB0302A0FB0113FF
:10229000A2F50002002918BF43F001035B0028BF2C
:1022A0004FEA330342EB22425FEA132C4CEBC2505D
:1022B0002EBFBCEB436FB2F57C0F70474FEA036C47
:1022C000BCF1004F08BF20F00100B2F57C0F38BF11
:1022D00070470BD582F0FF0212F5803FC8BF7047F0
:1022E00000F1C040D8BF00F00040704700F5000C7E
:1022F0005FEA4C0C48BF7047B0F1C04000F073B8C3
:1023000090EA010F0CEAD11348BF42F48072624593
:1023100038BF634504D280EA010000F000407047F6
:1023200010B500F01AF800BF8900013E00F007B8B0
:1023300000F009B85FEA410C5FEA1C6C08D080EA43
:10234000010000F050B85FEA400C5FEA1C6CF6D167
:102350004FF00040A0F5800070470EF1020E2EF005
:10236000030E5EF8044B244204D44FEA4102B2F15A
:102370007F4F11D84FEA4003B3F17F4F0CD80ED1F5
:102380004FEAD07CB2F17F4F0CEB4C0C0CF1020CFD
:1023900008BF4CEBD17C04E04FF0080C01E04FEAA1
:1023A000D17C0CEB4C0324FA03F404F00704B4F1E1
:1023B000040C06D20EEB840CBDE810404CF0010C6E
:1023C0006047DFE80CF0070802024FF00040A0F57C
:1023D000800010BD0846420018BFD2F1807288BF4D
:1023E00000F0004010BDFF2141EAD050C005704709
:1023F00080F0004090EA010F7FF5D7AD81F00041F9
:1024000000F007B890EA010F48BF81F000413FF5A6
:10241000CCAD421A04D882F00042A0EB0200114475
:102420004FEAD0524FF07F4C1CEA410FA2EBD15340
:1024300018BF9CEA026F4AD04FF0004C4CEA0020D3
:102440004CEA012121FA03FCB0EB0C0C0FD412F082
:10245000FE0F36D05FEA4C001DD5001240EBC25093
:1024600038BF70471CF03F0F18BF70470BE0A2F158
:1024700001025FEA1C2040EBC25038BF70471CF0DD
:102480007F0F18BF7047C3F12003994014BF401E4F
:1024900020F00100704780084FEA122308BF704700
:1024A000B0FA80FCA2EB0C02CCF1280C60FA0CF024
:1024B00093EA122F04BF00EBC25070474FEAC3707B
:1024C0007047130A5FEADC1008BF7047F6E79CEA22
:1024D000026F04D010EA5C0F08BF0020704710B5EF
:1024E000FFF73BFF40DFF63E81F0004070470CF005
:1024F0000F03092B08BF082000F07F800A2B0BD0A8
:10250000082B18BF704708BF1CF0400F0AD04FF0CF
:1025100000004FF0000170471CF0400F18BF4FF053
:10252000004070471CF0100F08D020F0704300F0FE
:102530007F4242EAD3014FEA4370704700F06040A7
:1025400021F07F4242EA000201F07F4040EA7270CF
:1025500070474FF0FF0C4CF4E06C1CEA11531CBFA9
:102560009CEA030C9445C2BFDA4201EB025170476A
:10257000002B0DD0BCF1000F0FD0002A01F000415C
:10258000A4BF41F0E04141F07F614FF0000070478F
:1025900001F000414FF00000704750EA01334FF066
:1025A0009B0C18BF4CF0806C7FF486AB70474FF0EB
:1025B000FF0212EAD0521CBF92F0FF038B42C2BF4F
:1025C000D14200EBC1507047002A0AD0002B0BD03B
:1025D000002900F00040A4BF40F0FE4040F400009D
:1025E000704700F00040704743024FF00B0C18BFDB
:1025F0004CF0806C7FF434AD70471CF4801F11D018
:102600001CF4E02F03D06FEACC31490070474FF043
:102610004050EFF3008222F0704242EA000282F35F
:10262000008870474FF00000704700000000000075
:102630000000010203040607080900005C260008E8
:10264000000000205800000028010008B4260008FF
:102650005800002038070000440100080000000076
:10266000000000000000000000000000000000006A
:10267000000000000000000000000000000000005A
:10268000000000000000000000000000000000400A
:102690008FC2F53C0AD7A33C0AD7233C0000A041D7
:1026A0000000000001000000100000000000000019
:0426B0000024F4000E
:04000005080000ED02
:00000001FF
